:020000040800F2
:10000000000002208DD90008997600089D7600082E
:10001000A1760008A5760008A97600080000000077
:10002000000000000000000000000000AD760008A5
:10003000B176000800000000B5760008B976000827
:10004000DDD90008DDD90008DDD90008DDD90008B8
:10005000DDD90008DDD90008DDD90008DDD90008A8
:10006000DDD90008DDD90008DDD90008DDD9000898
:10007000DDD90008DDD90008DDD90008DDD9000888
:10008000DDD90008DDD90008DDD90008DDD9000878
:10009000DDD90008DDD90008DDD90008DDD9000868
:1000A000DDD90008DDD90008DDD90008DDD9000858
:1000B000DDD90008DDD90008DDD90008DDD9000848
:1000C000DDD90008DDD90008DDD90008DDD9000838
:1000D000DDD90008DDD90008DDD90008DDD9000828
:1000E000DDD90008DDD90008C1760008DDD9000897
:1000F000DDD90008DDD90008DDD90008DDD9000808
:10010000DDD90008DDD90008DDD90008DDD90008F7
:10011000DDD90008DDD90008DDD90008DDD90008E7
:10012000DDD90008DDD90008DDD90008DDD90008D7
:10013000DDD90008DDD90008DDD90008DDD90008C7
:10014000DDD90008DDD90008DDD90008F576000802
:10015000DDD90008DDD90008DDD90008DDD90008A7
:10016000DDD90008DDD90008DDD90008DDD9000897
:10017000DDD90008DDD90008DDD90008DDD9000887
:08018000DDD90008DDD90008FB
:1001880082B0034600918DF807309DF90730002BA7
:100198000CDA0C499DF8073003F00F03043B009A72
:1001A800D2B21201D2B20B441A7609E006499DF97F
:1001B8000730009AD2B21201D2B20B4483F800235E
:1001C80002B0704700ED00E000E100E000B583B048
:1001D8000190019BB3F1807F01D3012311E00B4B08
:1001E800019A22F07F42013A5A604FF0FF300F2106
:1001F800FFF7C6FF054B00229A60044B07221A60DE
:100208000023184603B05DF804FB00BF10E000E0CF
:1002180030B5ADF5357D8B480EF0BCF900F022FB0A
:1002280010200DF065FE0346B09310200DF060FE1F
:100238000346AF9310200DF05BFE0346AE931020EB
:100248000DF056FE0346AD9310200DF051FE034607
:10025800AC9310200DF04CFE0346AB930023B393F0
:100268000023B2930023B1930023AA930023A993F8
:100278004FF480600DF03CFE0346A893724B9FAC90
:100288001D460FCD0FC40FCD0FC42B6823706E4BC6
:1002980096AC1D460FCD0FC40FCD0FC42B6823702D
:1002A8009FAB1846B09900F05DFA684B92AC18689D
:1002B80059689A68DB680FC48EAB00221A60043351
:1002C80000221A60043300221A60043300221A60E4
:1002D800043396AB1846AF9900F044FA5A4B85ACF4
:1002E8001D460FCD0FC40FCD0FC42B682370564B7E
:1002F8007CAC1D460FCD0FC40FCD0FC42B682370E7
:1003080085AB1846AD9900F02DFA7CAB1846AC9930
:1003180000F028FA00F00AFB452000F09BF800F0F6
:1003280017FB00F01DFB92AA3DAB104680211A4630
:100338000AF05AF90023B3937EE00023B29372E0E7
:1003480072B600F005FB424B1B681B687A933DAB05
:10035800AF98AE991A460AF0F7FB3D4B1B681B682D
:100368007B93B29B9B00A89A13447B997A9A8A1A2A
:100378001A6062B6AC98AD99AB9A0CF009F90023F3
:10038800B1930AE0B19BAC9A1344B19AAB990A4471
:1003980012781A70B19B0133B193B19B0F2BF1DD29
:1003A800AB9B1A78AF9B1A70AF9B0533AB9A527907
:1003B8001A70AF9B0A33AB9A927A1A70AF9B0133CB
:1003C800AB9A52781A70AF9B0633AB9A92791A702F
:1003D800AF9B0B33AB9AD27A1A70AF9B0C33AB9AA4
:1003E800127B1A70AF9B0233AB9A92781A70AF9B4C
:1003F8000833AB9A127A1A70AF9B0D33AB9A527BC3
:100408001A70AF9B0333AB9AD2781A70AF9B043340
:10041800AB9A12791A70AF9B0933AB9A527A1A7059
:10042800B29B0133B293B29BFF2B89DDA89800F0F1
:1004380063F8B39B0133B393B39BB3F5FA1FFFF68D
:100448007CAFFEE728380108303801085438010825
:100458000000002000B585B003468DF80730002362
:1004680003930DF10B03184607F032FC0346002BEB
:1004780007DD9DF80B309DF807209A4201D1002333
:1004880035E000BF00BF00BF00BF00BF00BF00BF16
:1004980000BF00BF00BF00BF00BF00BF00BF00BF5C
:1004A80000BF00BF00BF00BF00BF00BF00BF00BF4C
:1004B80000BF00BF00BF00BF00BF00BF00BF00BF3C
:1004C80000BF00BF00BF00BF00BF00BF00BF00BF2C
:1004D80000BF00BF00BF00BF00BF00BF00BF00BF1C
:1004E80000BF00BF00BF039B01330393B9E7184661
:1004F80005B05DF804FB00BF00B585B0019000238E
:10050800039324484FF4005108F03AFA0023039368
:1005180029E0039B9B00019A13441B681B0EDBB266
:10052800184607F047FB039B9B00019A13441B687E
:100538001B0CDBB2184607F03DFB039B9B00019A9E
:1005480013441B681B0ADBB2184607F033FB039BF6
:100558009B00019A13441B68DBB2184607F02AFB7C
:10056800039B01330393039BFF2BD2DD09484FF410
:10057800005108F007FA0023039302E0039B0133BC
:100588000393039BB3F57A3FF8DB0023184605B0C5
:100598005DF804FB000C024000B585B001900091A5
:1005A80000230393002302936C484FF4005108F092
:1005B800E7F900230393B8E0039B9B00019A1344D7
:1005C8001B681B0EDBB2184607F0F4FA039B9B006E
:1005D800019A13441B681B0CDBB2184607F0EAFAB1
:1005E800039B9B00019A13441B681B0ADBB2184645
:1005F80007F0E0FA039B9B00019A13441B68DBB2E7
:10060800184607F0D7FA039B1B01009A13441B787E
:10061800184607F0CFFA039B1B010133009A1344D5
:100628001B78184607F0C6FA039B1B010233009A91
:1006380013441B78184607F0BDFA039B1B010333CC
:10064800009A13441B78184607F0B4FA039B1B0161
:100658000433009A13441B78184607F0ABFA039B3F
:100668001B010533009A13441B78184607F0A2FAB9
:10067800039B1B010633009A13441B78184607F0A6
:1006880099FA039B1B010733009A13441B781846F9
:1006980007F090FA039B1B010833009A13441B7858
:1006A800184607F087FA039B1B010933009A134485
:1006B8001B78184607F07EFA039B1B010A33009A41
:1006C80013441B78184607F075FA039B1B010B337C
:1006D800009A13441B78184607F06CFA039B1B0119
:1006E8000C33009A13441B78184607F063FA039BEF
:1006F8001B010D33009A13441B78184607F05AFA69
:10070800039B1B010E33009A13441B78184607F00D
:1007180051FA039B1B010F33009A13441B781846A8
:1007280007F048FA039B01330393039BFF2B7FF7E2
:1007380043AF0A484FF4005108F024F9002303930B
:1007480002E0039B01330393039A054B9A42F8DDB9
:100758000023184605B05DF804FB00BF000C0240FA
:10076800FF0F270086B00190009100230493002317
:1007780005933EE0019A059B13441B78392B08D951
:10078800019A059B13441B7843F02003DBB2573BC7
:1007980004E0019A059B13441B78303B0393059BA7
:1007A8000133019A13441B78392B09D9059B01336E
:1007B800019A13441B7843F02003DBB2573B05E052
:1007C800059B0133019A13441B78303B0293009A2E
:1007D800049B1344039AD2B21201D1B2029AD2B244
:1007E8000A43D2B21A70059B02330593049B013366
:1007F8000493059B1F2BBDD900BF06B0704700BFEF
:1008080000B5ABB011AA6423104600211A460DF0BA
:1008180063FE6A464123104600211A460DF05CFE2D
:100828000E484FF4005108F0ABF80D4B1B685B689D
:1008380011AA104641211A460DF04AF9084B1B68C7
:100848005B686A46104641211A460DF041F9034893
:100858004FF4005108F096F8D4E700BF000C0240AE
:100868008805002000B585B0174B1A68174BA3FB05
:1008780002139B091846FFF7A9FC0346002B00D07A
:10088800FEE70820012107F0EDFD4FF460430293D5
:1008980001238DF80C3000238DF80E3003238DF8DA
:1008A8000D3000238DF80F3002AB0948194607F0C8
:1008B800D9FF084B009308480121084A084B08F063
:1008C8007FF905B05DF804FB18000020D34D6210D5
:1008D800000C02402C000020E00B002064000020E7
:1008E8002C010020074B1B68002B04D0054B1B680C
:1008F8005A1E044B1A60044B1B685A1C024B1A60A0
:10090800704700BFD80B0020DC0B002082B001909C
:10091800019A044B1A6000BF024B1B68002BFBD1E5
:1009280002B07047D80B0020704700BF064B1B6809
:10093800054A1268126842F080721A60034B1B68FD
:1009480000221A60704700BF080000200000002045
:10095800024B1B6800221A60704700BF000000208D
:10096800044B1B68034A1268126842F001021A60BD
:10097800704700BF04000020024B1B681B68184624
:10098800704700BF0000002000B583B00190054B00
:100998001B68DB6818460449019A0DF0DDF90DF073
:1009A8001BF800BF880500206838010800B585B02D
:1009B8000190019B002B05D10A48FF210A4A0B4BE5
:1009C8000DF012F801980DF093FA03460393039B78
:1009D800002B02D10648FFF7D7FF039B184605B046
:1009E8005DF804FB6C380108743D01087C38010887
:1009F8008838010800B587B00390029101920398E6
:100A080001990DF0DBFD0590059B002B02D10448F0
:100A1800FFF7BAFF059B184607B05DF804FB00BF57
:100A2800B838010800B583B00190009101980DF025
:100A380067FA03B05DF804FB84B003900291019259
:100A4800039B002B03D00A4B1A68039B1A60029B76
:100A5800002B03D0074B1A68029B1A60019B002BDE
:100A680003D0054B1A68019B1A6004B0704700BF99
:100A78000C000020100000201400002084B0039017
:100A880002910192039B002B01D10B4B0393029B14
:100A9800002B01D1094B0293019B002B01D1084B7C
:100AA8000193084B039A1A60074B029A1A60074B86
:100AB800019A1A6004B07047B5090008FD090008DA
:100AC8002D0A00080C00002010000020140000204F
:100AD80000B583B00190054B1B68019A920010463F
:100AE80098470346184603B05DF804FB0C00002045
:100AF80000B583B001900091009B002B06DC0948EB
:100B080040F24B11084A094B0CF06EFF084B1B686A
:100B1800009A92000198002198470346184603B0AE
:100B28005DF804FB6C380108883D01087C38010831
:100B38001000002086B003900291019200230593D3
:100B48000CE0059B9B00039A1344059A92000299B6
:100B58000A4412681A60059B01330593059A019BA4
:100B68009A42EEDB06B0704784B00390029101927E
:100B780009E0019B9B00039A1344019A9200029991
:100B88000A4412681A60019B5A1E0192002BF0DC7D
:100B980004B0704784B00390029101921CE0019B5D
:100BA8009B00039A13441A68019B9B0002990B440B
:100BB8001B689A4210D0019B9B00039A13441A6841
:100BC800019B9B0002990B441B689A4201D901239F
:100BD80001E04FF0FF3306E0019B013B0193019BCD
:100BE800002BDCDA0023184604B0704700B585B046
:100BF8000390029101920093029A009B9A4208D0B6
:100C0800029A009B9A4202DA4FF0FF3300E0012378
:100C180005E003980199029AFFF7BCFF03461846BE
:100C280005B05DF804FB00BF82B00190009102E0BE
:100C3800009B013B0093009B002B09DD009B03F107
:100C48008043013B9B00019A13441B68002BEFD0A3
:100C5800009B184602B0704784B0019000910023B1
:100C6800039308E0039B9B00019A134400221A6037
:100C7800039B01330393039A009B9A42F2DB04B06F
:100C8800704700BF00B587B00390029101920093AE
:100C9800019B002B06DC154840F28D11144A154BB8
:100CA8000CF0A2FE00230593059B9B00029A1344B7
:100CB8001A68009B13440493049A009B9A422CBF21
:100CC80000230123DBB20093059B9B00039A134486
:100CD800049A1A60059B01330593059A019B9A4271
:100CE800E2DB009B184607B05DF804FB6C3801088E
:100CF8009C3D0108E83801088AB0039002910192EE
:100D0800009300230993002308932EE0099B9B007E
:100D1800029A13441B680793099B9B00019A13448A
:100D28001B680693079A089B13440593059A089B2A
:100D38009A422CBF00230123DBB20893059A069B35
:100D480013440593059A069B9A422CBF002301235E
:100D5800DBB2089A13440893099B9B00039A134437
:100D6800059A1A60099B01330993099A009B9A42D4
:100D7800CCDB089B18460AB0704700BF00B587B0A7
:100D88000390029101920093019A089B9A4206DA15
:100D9800144840F2B311144A144B0CF025FE039882
:100DA8000299009A089BFFF7A7FF0590019A089BF4
:100DB8009A4211DD089B9B00039AD118089B9B005F
:100DC800029A1A440198089BC31A084611461A4603
:100DD800059BFFF757FF0590059B184607B05DF880
:100DE80004FB00BF6C380108A83D0108F038010871
:100DF80000B589B00390029101920093019B002BEA
:100E080006DC16484FF4E071154A164B0CF0ECFD61
:100E180000230793079B9B00029A13441B680693C1
:100E2800069A009B9A422CBF00230123DBB205934C
:100E3800079B9B00039A13440699009A8A1A1A6022
:100E4800059B0093079B01330793079A019B9A42DE
:100E5800E0DB009B184609B05DF804FB6C3801081C
:100E6800B03D0108E838010888B00390029101926A
:100E7800009300230793002306932CE0079B9B0015
:100E8800029A13441B680593079B9B00019A13441D
:100E98001B680493049A069B13440493049A069BC4
:100EA8009A422CBF00230123DBB20693059A049BC8
:100EB8009A422CBF00230123DBB2069A13440693FF
:100EC800079B9B00039A13440599049A8A1A1A608F
:100ED800079B01330793079A009B9A42CEDB069B38
:100EE800184608B0704700BF00B587B0039002915C
:100EF80001920093019A089B9A4206DA144840F23C
:100F0800E711144A144B0CF06FFD03980299009AEC
:100F1800089BFFF7A9FF0590019A089B9A4211DDEB
:100F2800089B9B00039AD118089B9B00029A1A44BD
:100F38000198089BC31A084611461A46059BFFF7F5
:100F480057FF0590059B184607B05DF804FB00BFE6
:100F58006C380108BC3D0108F038010800B593B0B1
:100F68000390029101920093019B002B06DC364806
:100F78004FF4FA71354A364B0CF036FD00231193C5
:100F8800029B1A1D02921B680F930F9B0E93009BE6
:100F98000D930E9B9BB20C930E9B1B0C0B930D9BFE
:100FA8009BB20A930D9B1B0C09930C9B0A9A02FB9C
:100FB80003F308930C9B099A02FB03F307930B9B1B
:100FC8000A9A02FB03F306930B9B099A02FB03F3AD
:100FD8001093089B1B0C079A13440793079A069BC8
:100FE80013440793079A069B9A4203D2109B03F572
:100FF80080331093079B1A0C109B13440593079B8F
:101008001A04089B9BB213440493049A119B13443B
:101018000493049A119B9A422CBF00230123DBB24C
:101028001A46059B13441193039B1A1D0392049AB5
:101038001A60019B013B0193019B002BA0D1119BDE
:10104800184613B05DF804FB6C380108C43D01086C
:10105800FC38010800B595B0039002910192009305
:10106800019B002B06DC3F4840F20B213E4A3F4BD8
:101078000CF0BAFC00231393029B1A1D02921B6802
:101088001193119B1093009B0F93109B9BB20E938F
:10109800109B1B0C0D930F9B9BB20C930F9B1B0C6F
:1010A8000B930E9B0C9A02FB03F30A930E9B0B9A6D
:1010B80002FB03F309930D9B0C9A02FB03F30893BD
:1010C8000D9B0B9A02FB03F312930A9B1B0C099AC4
:1010D80013440993099A089B13440993099A089B96
:1010E8009A4203D2129B03F580331293099B1A0C80
:1010F800129B13440793099B1A040A9B9BB213443F
:101108000693069A139B13440693069A139B9A42D6
:101118002CBF00230123DBB21A46079B1344139309
:10112800039B1B680593069A059B13440693069A2E
:10113800059B9A422CBF00230123DBB2139A134468
:101148001393039B1A1D0392069A1A60019B013B95
:101158000193019B002B8FD1139B184615B05DF8A6
:1011680004FB00BF6C380108D03D0108FC380108B9
:1011780000B595B00390029101920093019B002B5A
:1011880006DC3F4840F225213E4A3F4B0CF02CFC40
:1011980000231393029B1A1D02921B681193119B43
:1011A8001093009B0F93109B9BB20E93109B1B0CEC
:1011B8000D930F9B9BB20C930F9B1B0C0B930E9BD9
:1011C8000C9A02FB03F30A930E9B0B9A02FB03F3A0
:1011D80009930D9B0C9A02FB03F308930D9B0B9A42
:1011E80002FB03F312930A9B1B0C099A13440993FD
:1011F800099A089B13440993099A089B9A4203D2B7
:10120800129B03F580331293099B1A0C129B13440B
:101218000793099B1A040A9B9BB213440693069AE8
:10122800139B13440693069A139B9A422CBF0023E0
:101238000123DBB21A46079B13441393039B1B68D5
:101248000593059A069BD31A0693069A059B9A421C
:1012580094BF00230123DBB2139A13441393039B17
:101268001A1D0392069A1A60019B013B0193019B88
:10127800002B8FD1139B184615B05DF804FB00BFF7
:101288006C380108E03D0108FC38010810B584B04D
:101298000390029101920093019A069B9A4206DA02
:1012A800254840F23D21254A254B0CF09DFB069B25
:1012B800002B06DC204840F23E21204A214B0CF04E
:1012C80093FB019B9B00039AD418009B1B6803980F
:1012D8000299019AFFF742FE03462360039B0433F9
:1012E8000393009B04330093069B013B069315E090
:1012F800019B9B00039AD418009B1B6803980299D2
:10130800019AFFF7A7FE03462360039B0433039368
:10131800009B04330093069B013B0693069B002B1E
:10132800E6DC019B03F18043013B9B00039A1344D5
:101338001B68184604B010BD6C380108F03D010860
:10134800043901081039010800B587B005900491E7
:1013580003920293029B009305980499029A039BB7
:10136800FFF794FF07B05DF804FB00BF00B587B036
:10137800059004910392039B009305980499039A9E
:10138800049BFFF783FF07B05DF804FB00B58BB043
:101398000390029101920093019B002B06DC3148D7
:1013A80040F26621304A314B0CF01EFB009B002BAB
:1013B80006D12C4840F267212B4A2D4B0CF014FB28
:1013C800009B1F2B06D927484FF41A71264A294B30
:1013D8000CF00AFB019B9B00029A13440293019BA9
:1013E8009B00039A13440393009BC3F120030793C4
:1013F800029B043B0293029B1B680693079B069A79
:1014080022FA03F30593009B069A02FA03F3099361
:10141800019B089314E0029B043B0293029B1B6808
:101428000693039B043B0393079B069ADA40099BA8
:101438001A43039B1A60009B069A02FA03F3099366
:10144800089B013B0893089B002BE4D1039B043BBA
:101458000393039B099A1A60059B18460BB05DF825
:1014680004FB00BF6C380108F83D0108FC3801088E
:10147800183901082439010800B58BB0039002918E
:1014880001920093019B002B06DC294840F285213C
:10149800284A294B0CF0A8FA009B002B06D12448B7
:1014A80040F28621234A254B0CF09EFA009B1F2B05
:1014B80006D91F4840F287211E4A214B0CF094FAA6
:1014C800009BC3F120030793029B1A1D02921B681D
:1014D8000693079B069A02FA03F30593009B069A64
:1014E80022FA03F30993019B089312E0029B1A1D49
:1014F80002921B680693039B1A1D0392079A06998A
:101508009140099A0A431A60009B069A22FA03F34B
:101518000993089B013B0893089B002BE6D1039B8A
:10152800099A1A60059B18460BB05DF804FB00BFCA
:101538006C380108043E0108FC3801081839010814
:101548002439010800B58BB00390029101920093F1
:101558000C9B002B0AD00C9BB3F1FF3F06D0304800
:1015680040F29F212F4A304B0CF03EFA029B002B91
:1015780003DB029A009B9A4206DD29484FF4287142
:10158800284A2A4B0CF030FA17E0029B01330293E9
:10159800029A009B9A4208D10C9B002B02D0009B18
:1015A8005B0101E04FF0FF3335E0029B9B00019A9D
:1015B80013441A680C9B53400393039B002BE4D0FD
:1015C800039B079300230693079B5A42079B1340EC
:1015D80009930023089305E0099B1B020993089BC4
:1015E80008330893099B03F07F43002BF4D005E0F0
:1015F800099B5B000993089B01330893099B002B07
:10160800F6DA089B0693069BC3F11F030593029B1A
:101618005A01059B134418460BB05DF804FB00BF44
:101628006C380108103E010838390108583901089A
:1016380000B587B003900291029B5B090593059B57
:101648009B00039A13441A68029B03F01F034FF090
:10165800FF3101FA03F3134000220092184605995E
:10166800039A059BFFF76EFF0346184607B05DF81F
:1016780004FB00BF00B587B003900291029B5B0991
:101688000593059B9B00039A13441B68DA43029B4E
:1016980003F01F034FF0FF3101FA03F313404FF03B
:1016A800FF32009218460599039A059BFFF74AFFF7
:1016B8000346184607B05DF804FB00BF00B597B0B5
:1016C80001900091019B002B06DB814840F2CD215F
:1016D800804A814B0CF088F9019B9BB21093019BC7
:1016E8001B0C0F93019BDA430F9BB2FBF3F312938E
:1016F800019BDA43129B0F9901FB03F3D31A1B04D6
:101708006FEA13436FEA03431593129B109A02FB87
:1017180003F30E93159A0E9B9A4215D2129B013B26
:101728001293159A019B13441593159A019B9A429B
:101738000AD3159A0E9B9A4206D2129B013B12932A
:10174800159A019B13441593159A0E9BD31A15935A
:10175800159B1B0C129A02FB03F2159B13440E9364
:101768000E9B1B0C01331393159B1A04139B0199B1
:1017780001FB03F3D31A03F57F43FF3315930E9B45
:101788001A04159B9A4206D8139B013B1393159A8A
:10179800019B13441593129B1A04139B134414932F
:1017A800159A019B9A4206D3149B01331493159AF8
:1017B800019BD31A1593009B002B00F08480159B86
:1017C800DB431593159A009B13441593159A009BB8
:1017D8009A4211D2149B013B1493159A019B9A4289
:1017E80006D3149B013B1493159A019BD31A1593A6
:1017F800159A019BD31A1593009B0D93149B0C9378
:101808000D9B9BB20B930D9B1B0C0A930C9B9BB2DD
:1018180009930C9B1B0C08930B9B099A02FB03F37F
:1018280007930B9B089A02FB03F306930A9B099AFA
:1018380002FB03F305930A9B089A02FB03F3119337
:10184800079B1B0C069A13440693069A059B1344A0
:101858000693069A059B9A4203D2119B03F580339F
:101868001193069B1A0C119B13440493069B1A04AC
:10187800079B9BB213440393159A049B1344159337
:10188800159A049B9A421ED2149B013B1493159AF5
:10189800019B9A4294BF00230123DBB21A46159993
:1018A800019B994214BF00230123D9B20398009BDE
:1018B800984294BF00230123DBB20B40DBB21343F1
:1018C800149AD31A1493149B184617B05DF804FBA6
:1018D8006C380108203E01086C39010800B587B052
:1018E80001900091009B002B06D11B4840F221314A
:1018F8001A4A1B4B0CF078F8009B059300230493BD
:1019080005E0059B1B020593049B08330493059B84
:1019180003F07F43002BF4D005E0059B5B000593A3
:10192800049B01330493059B002BF6DA049B039375
:10193800019B039A1A60039B009A9A40019B5A6084
:10194800019B5B6818460021FFF7B8FE0246019B21
:10195800DA6007B05DF804FB6C380108303E010816
:101968008439010800B589B0039002910192029B65
:10197800002B06D1244840F22E31244A244B0CF087
:1019880033F8029B07930023069305E0079B1B028D
:101998000793069B08330693079B03F07F43002BAE
:1019A800F4D005E0079B5B000793069B0133069381
:1019B800079B002BF6DA069B0593039B059A1A6092
:1019C800059B002B0FD0059B029A9A40059BC3F1FB
:1019D8002003019921FA03F313430293059B019A0B
:1019E80002FA03F30193039B029A5A60039B019A3C
:1019F8009A6002980199FFF761FE0246039BDA603C
:101A080009B05DF804FB00BF6C380108443E0108CA
:101A18008C39010800B58BB0039002910192019BAB
:101A2800002B06DC444840F23F31444A444B0BF05B
:101A3800DBFF019B012B06D1029B1B68039819460B
:101A4800FFF74CFF75E0019B022B0AD1029B043380
:101A58001A68029B1B68039811461A46FFF782FF13
:101A680067E0019B03F18043013B9B00029A13440A
:101A78001B680993019B03F18043023B9B00029A78
:101A880013441B680893099B002B06D12A484FF47E
:101A980053712A4A2B4B0BF0A7FF099B079300238E
:101AA800069305E0079B1B020793069B08330693E2
:101AB800079B03F07F43002BF4D005E0079B5B00F6
:101AC8000793069B01330693079B002BF6DA069BC8
:101AD8000593039B059A1A60059B002B1CD0059B58
:101AE800099A9A40059BC3F12003089921FA03F348
:101AF80013430993059B089A9A40019B03F180437D
:101B0800033B9B0002990B441968059BC3F1200312
:101B180021FA03F313430893039B099A5A60039B22
:101B2800089A9A6009980899FFF7C8FD0246039B2E
:101B3800DA600BB05DF804FB6C380108583E010808
:101B4800943901088C39010800B599B003900291C5
:101B58000192009300231693009B1B68002B0ED064
:101B68000198FEF7B5FF1690009B1B68169802991E
:101B7800019AFFF70BFC1790169B029301E00023D4
:101B88001793009B5B681293009BDB6811938CE0B2
:101B9800179B1093119B0F93109B9BB20E93109B56
:101BA8001B0C0D930F9B9BB20C930F9B1B0C0B9361
:101BB8000E9B0C9A02FB03F30A930E9B0B9A02FBF3
:101BC80003F309930D9B0C9A02FB03F308930D9BF7
:101BD8000B9A02FB03F313930A9B1B0C099A1344F9
:101BE8000993099A089B13440993099A089B9A42F6
:101BF80003D2139B03F580331393099B1A0C139B91
:101C080013441593099B1A040A9B9BB21344079328
:101C1800019B9B00029A13441A68079B134406937E
:101C2800179A159B1A440699079B99422CBF0023C3
:101C38000123DBB2134401331593069B0793019BE1
:101C48009B00029A13441A68159B129901FB03F32F
:101C5800D31A1493149A079B9A4294BF0023012322
:101C6800DBB25B420593159A059B13441593059ABD
:101C7800129B1340149A13441493149A129B9A4279
:101C880006D3149A129BD31A1493159B01331593F8
:101C9800149B1793159B0493039B002B05D0019B62
:101CA8009B00039A1344049A1A60019B5A1E0192DE
:101CB800002B3FF76DAF009B1B68002B04D0074B30
:101CC8001B68169800219847009B1B68179A22FAF0
:101CD80003F3184619B05DF804FB00BF1400002098
:101CE80000B58FB00390029101920093009B002BE6
:101CF80006D12F484FF460712E4A2F4B0BF074FE1B
:101D0800009B5A1E009B1340002B40D1029B1A686F
:101D1800009B013B13400B93039B002B35D0009B8A
:101D2800012B05D803980299019AFEF703FF2CE0CE
:101D3800009B0A93002309930A9B5A420A9B13406B
:101D48000D9300230C9305E00D9B1B020D930C9B38
:101D580008330C930D9B03F07F43002BF4D005E070
:101D68000D9B5B000D930C9B01330C930D9B002B7B
:101D7800F6DA0C9B0993099BC3F11F030893039898
:101D88000299019A089BFFF777FB0B9B0BE004ABCA
:101D980018460099FFF7A2FD04AB03980299019A2F
:101DA800FFF7D2FE034618460FB05DF804FB00BFEC
:101DB8006C3801086C3E01088439010800B5ADB0E3
:101DC8000390029101920093009B012B06DC1248BC
:101DD8004FF46971114A124B0BF006FE2E9B1B68DB
:101DE80024932E9B5B6823932E9B9B6822932E9BA8
:101DF800DB682193249B002B14D00098FEF768FE23
:101E0800289028980199009A249BFFF7BFFA2A90F6
:101E1800289B019308E000BF6C3801087C3E01084C
:101E28009C39010800232A93009B03F18043013B5E
:101E38009B00019A13441B682993009B023B2B9338
:101E48002B9B9B00019A13441B6820932A9B1F938A
:101E5800219B1E931F9B9BB21D931F9B1B0C1C93C6
:101E68001E9B9BB21B931E9B1B0C1A931D9B1B9ABC
:101E780002FB03F319931D9B1A9A02FB03F31893B1
:101E88001C9B1B9A02FB03F317931C9B1A9A02FBD9
:101E980003F32693199B1B0C189A13441893189A4A
:101EA800179B13441893189A179B9A4203D2269BA0
:101EB80003F580332693189B1A0C269B134427930B
:101EC800189B1A04199B9BB213441693169A299BC4
:101ED80013441593279A2A9B1A441599169B9942DD
:101EE8002CBF00230123DBB213442793159B1693C1
:101EF800239B279A02FB03F3299AD31A2A93209A41
:101F0800229BD31A14932A9A239BD21A2099229B94
:101F180099422CBF00230123DBB2D31A2A93149BC6
:101F28002993229B1393279B1293139B9BB2119384
:101F3800139B1B0C1093129B9BB20F93129B1B0CB1
:101F48000E93119B0F9A02FB03F30D93119B0E9AAC
:101F580002FB03F30C93109B0F9A02FB03F30B9302
:101F6800109B0E9A02FB03F325930D9B1B0C0C9AF6
:101F780013440C930C9A0B9B13440C930C9A0B9BD5
:101F88009A4203D2259B03F5803325930C9B1A0CA8
:101F9800259B13440A930C9B1A040D9B9BB2134474
:101FA8000993299A099BD31A08932A9A0A9BD21A49
:101FB8002999099B99422CBF00230123DBB2D31A2C
:101FC8002A93089B2993279B013327932A9A169BC8
:101FD8009A4234BF00230123DBB25B420793279A5E
:101FE800079B13442793079A229B1A40299B134463
:101FF8000693079A239B1A402A9B1A440699299B01
:1020080099422CBF00230123DBB213442A93069B79
:1020180029932A9A239B9A421CD32A9A239B9A4251
:1020280003D8299A229B9A4214D3279B01332793DA
:10203800299A229BD31A05932A9A239BD21A299963
:10204800229B99422CBF00230123DBB2D31A2A9387
:10205800059B2993039B002B05D02B9B9B00039A80
:102068001344279A1A602B9B013B2B932B9B002B25
:10207800BFF6E6AE249B002B23D0249BC3F120039C
:10208800299A02FA03F3002B06D0134840F2C33111
:10209800124A134B0BF0A8FC249B299ADA40249B84
:1020A800C3F120032A9901FA03F313432993249BCC
:1020B8002A9A22FA03F32A930A4B1B6828980021CC
:1020C8009847029B04332A9A1A60029B299A1A603D
:1020D8002DB05DF804FB00BF6C3801087C3E010898
:1020E800A43901081400002000B5A9B0039002919A
:1020F800019200932B9B022B06DC2D4840F2E7311E
:102108002C4A2D4B0BF070FC019A2B9B9A4206DA55
:1021180027484FF47A71274A284B0BF065FC2B9B14
:1021280003F18043013B9B002A9A13441B682293C6
:102138002B9B03F18043023B9B002A9A13441B68A4
:102148002193229B002B06DB194840F2ED31194AF6
:102158001B4B0BF049FC019A2B9BD31A27932B9B03
:102168005A1E279B13449B00029A13441B6825930D
:10217800009A229B9A4225D1259A219B9A4221D1E5
:102188004FF0FF332693279B9B00029A134418466F
:102198002A992B9A269BFEF7EBFF2B9B5A1E279B0F
:1021A80013449B00029A13441B68009365E100BF27
:1021B8006C380108903E0108CC390108D43901086F
:1021C800E0390108009B20932C9B1F93209B9BB216
:1021D8001E93209B1B0C1D931F9B9BB21C931F9B44
:1021E8001B0C1B931E9B1C9A02FB03F31A931E9B4A
:1021F8001B9A02FB03F319931D9B1C9A02FB03F322
:1022080018931D9B1B9A02FB03F324931A9B1B0C28
:10221800199A13441993199A189B13441993199AE4
:10222800189B9A4203D2249B03F580332493199B6D
:102238001A0C249B13442693199B1A041A9B9BB2CD
:1022480013441793179A259B13441693269A009BB9
:102258001A441699179B99422CBF00230123DBB21D
:1022680013442693169B1793229B269A02FB03F38B
:10227800259AD31A00932B9B9A1E279B13449B00E5
:10228800029A13441A68219BD31A1593009A229B29
:10229800D21A2B9B991E279B0B449B0002990B4437
:1022A8001968219B99422CBF00230123DBB2D31A62
:1022B8000093159B2593219B1493269B1393149BA2
:1022C8009BB21293149B1B0C1193139B9BB21093FC
:1022D800139B1B0C0F93129B109A02FB03F30E9394
:1022E800129B0F9A02FB03F30D93119B109A02FBAA
:1022F80003F30C93119B0F9A02FB03F323930E9B9A
:102308001B0C0D9A13440D930D9A0C9B13440D93BB
:102318000D9A0C9B9A4203D2239B03F58033239397
:102328000D9B1A0C239B13440B930D9B1A040E9BB5
:102338009BB213440A93259A0A9BD31A0993009ACD
:102348000B9BD21A25990A9B99422CBF0023012383
:10235800DBB2D31A0093099B2593269B013326935E
:10236800009A179B9A4234BF00230123DBB25B42D9
:102378000893269A089B13442693089A219B1A408F
:10238800259B13440793089A229B1A40009B1A44E2
:102398000799259B99422CBF00230123DBB21344E4
:1023A8000093079B2593009A229B9A421CD3009A7C
:1023B800229B9A4203D8259A219B9A4214D3269BA2
:1023C80001332693259A219BD31A0693009A229BC0
:1023D800D21A2599219B99422CBF00230123DBB2F5
:1023E800D31A0093069B2593279B9B00029A1A44B5
:1023F8002B9B023B10462A991A46269BFEF7B8FEED
:102408000590259A059B9A422CBF00230123DBB235
:102418000493259A059BD31A2593009A049B9A4204
:102428002CBF00230123DBB20593009A049BD31A27
:1024380000932B9B9A1E279B13449B00029A1344DC
:10244800259A1A60059B002B17D0279B9B00029AA0
:10245800D118279B9B00029A1A442B9B013B0846E4
:1024680011462A9AFEF748FC0246229B1344009A1A
:1024780013440093269B013B2693039B002B05D016
:10248800279B9B00039A1344269A1A60279B013BBB
:102498002793279B002BBFF662AE2B9B03F180434B
:1024A800013B9B00029A1344009A1A6029B05DF818
:1024B80004FB00BF00B58DB0079006910592049308
:1024C8000E9B002B06DC484840F21F41474A484B08
:1024D8000BF08AFA059A0E9B9A4206DA42484FF4A4
:1024E8008461424A434B0BF07FFA0E9B012B09D1C2
:1024F80007980699059A0F9BFFF726FB0246069B4D
:102508001A606DE00E9B022B08D10F9B0093079871
:102518000699069A059BFFF751FC61E00F9B5A68E4
:102528000E9B03F18043013B9B0004990B441B68FD
:102538009A4206D02C4840F22B412C4A2E4B0BF0E5
:1025480053FA0F9B9A680E9B03F18043023B9B0052
:1025580004990B441B689A4206D0234840F22C4148
:10256800224A264B0BF040FA0F9B5B68002B06DBD8
:102578001D4840F22D411D4A214B0BF035FA0F9BA7
:102588001B680A930A9B002B07D006980699059AA0
:102598000A9BFEF7FBFE0B9001E000230B930F9BB9
:1025A800DB68049A00920E9A0192029307980699A2
:1025B800059A0B9BFFF798FD0A9B002B10D00698F5
:1025C80006990E9A0A9BFEF757FF0990099B002B64
:1025D80006D005484FF48761044A0A4B0BF004FA09
:1025E8000DB05DF804FB00BF6C380108A03E01087F
:1025F80094390108D4390108003A0108143A01084D
:10260800283A01084C3A010800B58DB005900491AC
:102618000392029300230B930E9B002B06DC2548A4
:1026280040F24241244A254B0BF0DEF9039A0E9BF7
:102638009A4206DA1F4840F243411F4A204B0BF0EA
:10264800D3F906AB184602990E9AFFF7E3F90E9BE9
:10265800022B19DD069B002B16D00E98FEF738FAD0
:102668000B90069B0B9802990E9AFEF78FFE0A9024
:102678000A9B002B06D00F4840F249410E4A114BE5
:102688000BF0B2F90B9B02930E9B009306AB0193E0
:1026980005980499039A029BFFF70CFF0B9B002BEC
:1026A80004D0094B1B680B98002198470DB05DF8C2
:1026B80004FB00BF6C380108B43E010894390108D6
:1026C800D43901084C3A01081400002082B0019066
:1026D800019B102B1BD0102B06D8042B13D0082BD2
:1026E80013D0022B0DD01CE0402B14D0402B02D865
:1026F800202B0ED015E0802B0FD0B3F5807F0ED0A5
:102708000FE001230EE002230CE003230AE0042378
:1027180008E0052306E0062304E0072302E0082377
:1027280000E00023184602B0704700BF86B0019051
:1027380000914FF0FF32009BB2FBF3F303930123A8
:102748000493009B059307E0059B009A02FB03F3A3
:102758000593049B01330493059A039B9A42F3D98A
:10276800019B049A1A60019B059A5A6006B070474B
:1027780000B587B00190019B002B06D114484FF497
:102788009061144A144B0BF02FF9019B0593002319
:10279800049305E0059B1B020593049B08330493EF
:1027A800059B03F07F43002BF4D005E0059B5B00FD
:1027B8000593049B01330493059B002BF6DA049BD5
:1027C8000393039BC3F12003184607B05DF804FB8D
:1027D8006C380108C03E0108583A010810B58AB0A3
:1027E8000390029101920093009B013B5C01009BC6
:1027F80003F18043013B9B00019A13441B68184670
:10280800FFF7B6FF0346E218029B13445A1E029BC9
:10281800B2FBF3F30593029B012202FA03F3DBB246
:10282800013B8DF8133000230893059B099300237F
:10283800079334E0089B9B00019A13441A68079B8E
:1028480022FA03F38DF81B30079A029B134407936F
:10285800079B1F2B19D9089B01330893089A009BE3
:102868009A4212DA079B203B0793089B9B00019A28
:1028780013441A68079B0299CB1A02FA03F3DAB2D7
:102888009DF81B3013438DF81B30039A099B1344A2
:102898009DF81B109DF813200A40D2B21A70099BAC
:1028A8005A1E0992002BC5D1059B18460AB010BDC7
:1028B80000B599B003900291019200231793ADE0FF
:1028C800019B1B68C3F12003029A22FA03F31393B6
:1028D800019B1B68029A02FA03F31293139B11934C
:1028E800019BDB681093119B9BB20F93119B1B0CF0
:1028F8000E93109B9BB20D93109B1B0C0C930F9B7C
:102908000D9A02FB03F30B930F9B0C9A02FB03F344
:102918000A930E9B0D9A02FB03F309930E9B0C9AE4
:1029280002FB03F314930B9B1B0C0A9A13440A93A0
:102938000A9A099B13440A930A9A099B9A4203D25A
:10294800149B03F5803314930A9B1A0C149B1344AD
:1029580016930A9B1A040B9B9BB213440893089A7C
:10296800129B13440793139A169B1A440799089BC2
:1029780099422CBF00230123DBB213440133169381
:10298800079B0893019B5B68169A02FB03F3129A54
:10299800D31A1593159A089B9A4294BF00230123D2
:1029A800DBB25B420693169A069B13441693019B6F
:1029B8005A68069B1340159A13441593019B5A684D
:1029C800159B9A4207D8019B5B68159AD31A1593F1
:1029D800169B01331693159B0593169B0293019B37
:1029E8001B68C3F12003059A02FA03F3002B06D0F3
:1029F8000F4840F2B1410F4A0F4B0AF0F5FF019B17
:102A08001B68059A22FA03F30593179B039A13444C
:102A1800059AD2B21A70179B01331793029B002BA9
:102A28007FF44EAF179B184619B05DF804FB00BF42
:102A38006C380108D83E0108603A010800B593B027
:102A48000390029101920093029B09AA104619462D
:102A5800FEF744FF00231193149B012B3EDD019BDD
:102A68005B6805AA10461946FEF738FF05AB0098C3
:102A78000099149AFFF768F80E90149B03F18043AD
:102A8800013B9B00009A13441B68002B14BF0023D2
:102A98000123DBB2149AD31A1493039A119B1A4494
:102AA80009AB10460E991A46FFF702FF0F90119ACC
:102AB8000F9B1344119309E0119B5A1C1192039A1E
:102AC800134400221A700F9B01330F93019B1A685D
:102AD8000F9B9A42F0D8149B012BC7DC039A119BD9
:102AE800D118009B1A6809AB084611461A46FFF729
:102AF800DFFE0346119A13441193002310931CE040
:102B0800039A109B13441B788DF83730039A109B57
:102B180013441199109A8A1A013A03990A441278AF
:102B28001A70119A109BD31A013B039A13449DF80B
:102B380037201A70109B01331093109B5B005A1CAE
:102B4800119B9A42DCD3119B184613B05DF804FB25
:102B580000B58BB00590049103920293029B002B61
:102B680006DC1E4840F2EA411D4A1E4B0AF03CFFB3
:102B7800029B03F18043013B9B00039A13441B68AB
:102B8800002B06D1154840F2EB41154A164B0AF0C6
:102B98002BFF049B1846FFF799FD0990099B002B12
:102BA80007D005980999039A029BFFF717FE034679
:102BB8000FE0049B07AA10461946FFF7B7FD07ABBD
:102BC800029A0092059804991A46039BFFF736FF6C
:102BD800034618460BB05DF804FB00BF6C380108CB
:102BE800EC3E01088C3A0108943A010800B589B016
:102BF8000390029101920093019B0693002307938F
:102C08000023059349E0059B002B0FD1079B5A1C15
:102C180007929B00039A13440299069A0A44127871
:102C28001A60059A009B1344059336E0079B03F14D
:102C38008043013B9B00039A1A44079B03F180439E
:102C4800013B9B0003990B4419680298069B0344B7
:102C58001B781846059B00FA03F30B431360059A8B
:102C6800009B13440593059B1F2B16D9059B203BFE
:102C78000593059B002B10D0079B5A1C07929B00BD
:102C8800039A13440299069A0A4412781146009846
:102C9800059A821A21FA02F21A60069B5A1E0692B7
:102CA800002BB0D103980799FDF7BEFF0790079B4B
:102CB800184609B05DF804FB00B58BB0039002918B
:102CC80001920093019B013B0C9A1268B3FBF2F14D
:102CD80002FB01F29B1A0133079300230693069B1C
:102CE8005A1C0692029A13441B7808930BE0089B1F
:102CF800009A02FB03F2069B591C069102990B44A9
:102D08001B7813440893079B013B0793079B002BF1
:102D1800EDD1039B089A1A60089B002B0CBF002377
:102D28000123DBB209933AE0069B5A1C0692029AE9
:102D380013441B780893012307930EE0089B009A1D
:102D480002FB03F2069B591C069102990B441B785F
:102D580013440893079B013307930C9B1A68079B3E
:102D68009A42EBD80C9B5B6803980399099AFEF783
:102D7800F5F8059003980399099A089BFDF782FFD7
:102D88000346059A13440593059B002B07D0099B1E
:102D98005A1C09929B00039A1344059A1A60069AD2
:102DA800019B9A42C0D3069A019B9A4206D00648D4
:102DB80040F23751054A064B0AF016FE099B1846A1
:102DC8000BB05DF804FB00BF6C380108F83E010841
:102DD800A43A010800B58BB00590049103920293C0
:102DE800039B002B01D100231EE0029B1846FFF72E
:102DF8006DFC0990099B002B07D005980499039A4C
:102E0800099BFFF7F3FE03460EE0029B07AA104654
:102E18001946FFF78BFC029B07AA009205980499B4
:102E2800039AFFF749FF034618460BB05DF804FB09
:102E380000B583B00190019B01221A60019B00221A
:102E48005A600120FDF744FE0246019B9A6003B0D8
:102E58005DF804FB00B585B001900091009B002B44
:102E68000CBF00230123DBB2009AD31A0093009B06
:102E78005B0901330393019B039A1A60019B0022AB
:102E88005A600398FDF724FE0246019B9A6005B03C
:102E98005DF804FB00B583B00190054B1B68019AEF
:102EA800926810460021984703B05DF804FB00BF04
:102EB8001400002000B583B001900091009B012B05
:102EC800B8BF01230093019B9B6818460099FDF742
:102ED8000FFE0246019B9A60019B009A1A60019BB3
:102EE8005B6883EAE372A2EBE372009B9A4202DD1D
:102EF800019B00225A60019B9B68184603B05DF84D
:102F080004FB00BF00B583B001900091009B002B2B
:102F180005DB009B0198194600F00EF808E0019BBC
:102F28004FF0FF325A60019B9B68009A52421A6028
:102F380003B05DF804FB00BF82B001900091009BD4
:102F4800002B07D0019B01225A60019B9B68009AC5
:102F58001A6002E0019B00225A6002B0704700BF6D
:102F680000B585B001900091019A009B9A421ED04D
:102F7800009B5B68002BB8BF5B420393019B1A68F8
:102F8800039B9A4205DA01980399FFF793FF0346DA
:102F980001E0019B9B680293009B9B68029819467D
:102FA800039AFDF7C7FD009B5A68019B5A6005B05C
:102FB8005DF804FB00B583B0019000910198FFF71C
:102FC80037FF01980099FFF79DFF03B05DF804FBF8
:102FD80000B583B0019000910198FFF729FF01988F
:102FE8000099FFF7A9FF03B05DF804FB00B583B0B3
:102FF800019000910198FFF71BFF01980099FFF7D6
:10300800AFFF03B05DF804FB84B00190019B5B68DF
:103018000393039B002B01D1012318E0039B012B91
:1030280006D1019B9B681B68DB43DB0FDBB20EE01C
:10303800039BB3F1FF3F09D1019B9B681B68B3F168
:10304800004F8CBF00230123DBB200E000231846A9
:1030580004B0704784B00190019B5B680393039BA5
:10306800002BD4BF00230123DBB21A46039B9A42EC
:1030780014BF00230123DBB2184604B0704700BF19
:1030880084B00190019B5B680393039B002B05DDD3
:10309800019B9B681B6823F000430AE0039B002BFD
:1030A80006DA019B9B681B685B4243F0004300E023
:1030B8000023184604B0704782B00190019B5B68FA
:1030C800002B03D0019B9B681B6800E00023184677
:1030D80002B0704782B00190019B5B68002BB8BFBB
:1030E8005B42184602B0704782B001900091009B85
:1030F800002B0FDB019B5B6883EAE372A2EBE372B0
:10310800009B9A4206DD019B9A68009B9B00134432
:103118001B6800E00023184602B0704700B583B072
:1031280001900091009B002B0CBF00230123DBB210
:10313800009AD31A5B09013301981946FFF7BAFEC2
:1031480003B05DF804FB00BF82B00190019B9B684F
:10315800184602B0704700BF00B583B001900091D7
:10316800009B002B06DC0C4840F209610B4A0C4B13
:103178000AF03AFC019B1A68009B9A4205DA01980A
:103188000099FFF797FE034601E0019B9B681846EC
:1031980003B05DF804FB00BF6C3801080C3F010860
:1031A800E838010800B583B00190009101980099B2
:1031B800FFF7D2FF0346184603B05DF804FB00BFD3
:1031C80000B585B001900091019B9A68009B002B87
:1031D800B8BF5B4210461946FDF726FD0390009BD9
:1031E800002B02DA039B5B4200E0039B019A5360C9
:1031F80005B05DF804FB00BF00B585B003900291EF
:103208000192039B00221A60039B029A9A6003981A
:103218000199FFF7D5FF039B184605B05DF804FB3D
:1032280010B58EB003908DED000BDDE90001DDE9EE
:10323800002309F0AFFE0346002B11D0DDE90001A1
:103248004FF00002714B09F03DFC02460B46104658
:103258001946DDE9002309F09DFE0346002B03D043
:10326800039B00225A60CFE001231C46DDE90001E0
:103278004FF000024FF0000309F096FE0346002BC2
:1032880001D100231C46E3B20B930B9B002B05D006
:10329800009B0093019B83F000430193DDE900014B
:1032A8004FF000025A4B09F07FFE0346002B03D073
:1032B800039B00225A60A7E04FF00002554BCDE96E
:1032C80008234FF000005249DDE9082309F024FDE6
:1032D80002460B46CDE9062301230D930CE0DDE9F8
:1032E8000001DDE9062309F0EDFB02460B46CDE9B6
:1032F80000230D9B01330D93DDE90001DDE908236F
:1033080009F066FE0346002BE9D1039B1A680D9B62
:103318009A4205DA03980D99FFF7CCFD034601E0C0
:10332800039B9B680593DDE9000109F065FE0346F0
:103338000493049809F050FB02460B46DDE90001AE
:1033480009F00CFA02460B46CDE90023DDE900013D
:103358004FF000022E4B09F027FE0346002B06D142
:103368002D4840F24A612D4A2D4B0AF03DFB0D9B3A
:10337800013B0C930C9B9B00059A1344049A1A601A
:1033880033E0DDE90001DDE9082309F09BFB024693
:103398000B46CDE90023DDE9000109F02DFE0346C7
:1033A8000493049809F018FB02460B46DDE9000176
:1033B80009F0D4F902460B46CDE90023DDE9000106
:1033C8004FF00002124B09F0EFFD0346002B06D127
:1033D800114840F25261114A114B0AF005FB0C9B4F
:1033E8009B00059A1344049A1A600C9B013B0C93AA
:1033F8000C9B002BC5DA0B9B002B02D00D9B5B426C
:1034080000E00D9B039A53600EB010BD0000E03F32
:103418000000F03F0000F0416C380108203F01082F
:10342800AC3A010800B585B003908DED000B039808
:10343800FFF7FEFC03989DED000BFFF7F1FE05B0CA
:103448005DF804FB30B589B001904FF000022C4BB9
:10345800CDE90223019B5B68002BB8BF5B42079351
:10346800079B002B04D14FF000024FF000033FE010
:10347800019B9A68079B013B0793079B9B0013449A
:103488001B68184609F0A8FA02460B46CDE9042342
:103498001FE0DDE90201DDE9042309F013FB024620
:1034A8000B4614461D46019B9A68079B013B0793F0
:1034B800079B9B0013441B68184609F08DFA0246C7
:1034C8000B462046294609F04BF902460B46CDE942
:1034D8000423079B002BDCDC019B5B68002B05DACF
:1034E800049B0493059B83F000430593DDE90423C3
:1034F80043EC172BB0EE470AF0EE670A09B030BD6F
:103508000000F04130B58DB003908DED000B039BAA
:103518005B680A93DDE900014FF000024FF00003F9
:1035280009F056FD0346002B02D0DDE9004503E013
:10353800009C019B83F00045CDE900450A9B002BC8
:103548006BD00A9B002BB8BF5B420A934FF0000276
:103558003C4BCDE908234FF000003B49DDE9082347
:1035680009F0DAFB02460B46CDE9062301230B934B
:103578000CE0DDE90001DDE9062309F0A3FA0246C3
:103588000B46CDE900230B9B01330B930B9A0A9B47
:103598009A42EEDBDDE90001DDE9082309F018FDB8
:1035A8000346002B02D04FF0FF3347E00A9B0B93F2
:1035B8002EE0DDE9000109F01FFD03460593039B9A
:1035C8009A680B9B9B0013441B680493049A059B01
:1035D8009A4201D9012331E0049A059B9A4202D20A
:1035E8004FF0FF332AE0059809F0F6F902460B463A
:1035F800DDE9000109F0B2F802460B46104619460B
:10360800DDE9082309F05EFA02460B46CDE90023FE
:103618000B9B5A1E0B92002BCBDC01231C46DDE9C9
:1036280000014FF000024FF0000309F0DBFC0346F5
:10363800002B01D100231C46E3B25B4218460DB0B3
:1036480030BD00BF0000F0410000F03F00B585B07C
:1036580003908DED000B039B5B68002B15DADDE909
:1036680000014FF000024FF0000309F0B1FC0346DF
:10367800002B02D04FF0FF331AE003989DED000BAA
:10368800FFF740FF03465B4212E0DDE900014FF01F
:1036980000024FF0000309F087FC0346002B01D01D
:1036A800012305E003989DED000BFFF72BFF034670
:1036B800184605B05DF804FB84B00190019B5B6877
:1036C8000393039B002BD4BF00230123DBB21A46CC
:1036D800039BDB0FDBB2D31A184604B0704700BF58
:1036E80000B585B001900091019B5B680393039B33
:1036F800B3F1FF3F02DA4FF0FF3322E0009B002BCB
:1037080006DB009B0198194600F020F8034618E0F4
:10371800039B002B01DB012313E0019B9B681B68C3
:103728000293009B5A42029B9A4202D24FF0FF3307
:1037380007E0009B5A42029B9A4294BF0023012350
:10374800DBB2184605B05DF804FB00BF84B00190F9
:103758000091019B5B680393039B012B01DD01230F
:103768001EE0039B002B02DA4FF0FF3318E0039BA7
:10377800002B03DD019B9B681B6800E0002302937C
:10378800029A009B9A4294BF00230123DBB21A4697
:103798000299009B99422CBF00230123DBB2D31A64
:1037A800184604B0704700BF00B585B0019000917D
:1037B800019B5B680393009B5B680293039A029BDF
:1037C8009A4208D0039A029B9A4202DA4FF0FF33DA
:1037D80000E0012319E0039B002B0ADB019B9A6898
:1037E800009B9B6810461946039AFDF7D3F90346D8
:1037F8000BE0009B9968019B9A68039B5B42084613
:1038080011461A46FDF7C6F90346184605B05DF895
:1038180004FB00BF84B001900091019B5B68002B02
:10382800B8BF5B420393039B012B01DD012318E022
:10383800039B012B03D1019B9B681B6800E00023BD
:103848000293029A009B9A4294BF00230123DBB2A1
:103858001A460299009B99422CBF00230123DBB230
:10386800D31A184604B0704700B583B00190009190
:10387800019B9868019B5B6883EAE371A1EBE371A4
:10388800009B9A68009B5B68002BB8BF5B42FDF702
:10389800ADF90346184603B05DF804FB00B583B0E4
:1038A80001900091019A009B9A4203D001980099D7
:1038B800FFF756FB019B5B6883EAE372A2EBE372B6
:1038C800019B5A6003B05DF804FB00BF00B583B0EC
:1038D80001900091019A009B9A4203D001980099A7
:1038E800FFF73EFB019B5B685A42019B5A6003B09D
:1038F8005DF804FB86B001900091019B5B6805931D
:10390800009B5A68019B5A60009B059A5A60019B6C
:103918001B680493009B1A68019B1A60009B049A19
:103928001A60019B9B680393009B9A68019B9A60AD
:10393800009B039A9A6006B0704700BF00B589B033
:10394800039002910192029B5B68002BB8BF5B4217
:103958000793079B002B0AD1039B9B68019A1A6067
:10396800019B002B0CBF00230123DBB224E0079B43
:103978005A1C039B1B689A4207DD079B0133039877
:103988001946FFF797FA034601E0039B9B680693E5
:10399800029B9B6806981946079A019BFDF772F9E6
:1039A8000590079B9B00069A1344059A1A60079A8C
:1039B800059B13440793079B184609B05DF804FB61
:1039C80000B589B0039002910192029B5B68002BBD
:1039D800B8BF5B420793039B1A68079B9A4205DAB4
:1039E80003980799FFF766FA034601E0039B9B6873
:1039F8000693079B002B0AD1069B019A1A60019B2C
:103A0800002B0CBF00230123DBB25B422AE0079B9B
:103A1800012B0FD1029B9B681A68019B9A4209D21D
:103A2800029B9B681B68019AD21A069B1A604FF08A
:103A3800FF3317E0029B9B6806981946079A019B7B
:103A4800FDF7D6F90590059B002B06D0074840F2F4
:103A58004D71074A074B09F0C7FF06980799FDF70C
:103A6800E3F80346184609B05DF804FB6C38010812
:103A78002C3F01084C3A010800B585B0039002912B
:103A88000192029B5B68002B08DB03980299019A5C
:103A9800FFF754FF0246039B5A6008E00398029917
:103AA800019AFFF78DFF03465A42039B5A6005B0FF
:103AB8005DF804FB00B585B0039002910192029B6A
:103AC8005B68002B09DA03980299019AFFF736FF21
:103AD80003465A42039B5A6007E003980299019AE9
:103AE800FFF76EFF0246039B5A6005B05DF804FBC2
:103AF80000B585B0039002910192019B5B68002B91
:103B080008DA03980199029AFFF718FF0246039B07
:103B18005A6008E003980199029AFFF751FF03469B
:103B28005A42039B5A6005B05DF804FB00B58DB09E
:103B3800059004910392049B5B68002BB8BF5B421D
:103B48000B93039B5B68002BB8BF5B420A930B9AED
:103B58000A9B9A420BDA049B0993039B0493099BE3
:103B680003930B9B08930A9B0B93089B0A930B9B4D
:103B78005A1C059B1B689A4207DD0B9B013305986D
:103B88001946FFF797F9034601E0059B9B680793E1
:103B9800049B9A68039B9B680A99009107981146B1
:103BA8000B9AFDF7EBF806900B9B9B00079A1344C2
:103BB800069A1A600B9A069B134418460DB05DF8D6
:103BC80004FB00BF00B58DB0059004910392049BDF
:103BD8005B68002BB8BF5B420B93039B5B68002BB1
:103BE800B8BF5B420A93049B9A68039B9B68104684
:103BF8000B991A460A9BFCF7F9FF0990099B002BC1
:103C080029DD059B1A680B9B9A4205DA05980B99E2
:103C1800FFF750F9034601E0059B9B680893049B56
:103C28009A68039B9B680A990091089811460B9A19
:103C3800FDF75AF90790079B002B06D01F4840F262
:103C48008F711F4A1F4B09F0CFFE08980B99FCF79C
:103C5800EBFF03462EE0099B002B2ADA059B1A6826
:103C68000A9B9A4205DA05980A99FFF723F9034651
:103C780001E0059B9B680893039B9A68049B9B68DB
:103C88000B990091089811460A9AFDF72DF90690AC
:103C9800069B002B06D0094840F29571084A094B4B
:103CA80009F0A2FE08980A99FCF7BEFF03465B429A
:103CB80000E0002318460DB05DF804FB6C380108DD
:103CC8003C3F01084C3A010800B587B003900291C7
:103CD8000192029B5A68019B5B685340002B06DBEC
:103CE80003980299019AFFF721FF059005E00398D0
:103CF8000299019AFFF766FF0590029B5B68002B0B
:103D080002DA059B5B4200E0059B039A536007B00B
:103D18005DF804FB00B587B0039002910192029B05
:103D28005A68019B5B685340002B06DB0398029995
:103D3800019AFFF747FF059005E003980299019A59
:103D4800FFF7F4FE0590029B5B68002B02DA059BE7
:103D58005B4200E0059B039A536007B05DF804FBE3
:103D680000B585B0039002910192019B002B0BDAFC
:103D7800019B5B42039802991A4600F00FF80398DA
:103D88000399FFF7A3FD05E0019B039802991A46E2
:103D980000F004F805B05DF804FB00BF00B589B079
:103DA800039002910192029B5B680793079B002B8B
:103DB80002D0019B002B03D1039B00225A6036E0FE
:103DC800079B002BB8BF5B420693069B5A1C039BBC
:103DD8001B689A4207DD069B013303981946FFF7D3
:103DE80069F8034601E0039B9B680593029B9B6867
:103DF80005981946069A019BFDF7B0F80490069BB2
:103E08009B00059A1344049A1A60049B002B0CBF6C
:103E180000230123DBB2069A13440693079B002B69
:103E280002DA069B5B4200E0069B039A536009B0E6
:103E38005DF804FB00B58FB0059004910392049BD4
:103E48005B680D93039B5B680C930D9B002B02D062
:103E58000C9B002B03D1059B00225A605AE00D9A57
:103E68000C9B5340DB0FDBB20B930D9B002BB8BFB1
:103E78005B420D930C9B002BB8BF5B420C930D9AD1
:103E88000C9B13445B0106AA10461946FEF7E2FF95
:103E9800089B0A930D9A0C9B9A420BDB049B9A6829
:103EA800039B9B680C9900910A9811460D9AFDF79F
:103EB800EDF90AE0039B9A68049B9B680D990091B1
:103EC8000A9811460C9AFDF7E1F90D9A0C9B1344D8
:103ED8000993099B03F18043013B9B000A9A134411
:103EE8001B68002B14BF00230123DBB2099AD31AE5
:103EF80009930B9B002B02D0099B5B4200E0099BB6
:103F0800079306AB05981946FFF7F4FC06AB18466D
:103F1800FEF7C0FF0FB05DF804FB00BF00B58BB023
:103F2800039002910192029B5B68002BB8BF5B4231
:103F38000793079B002B03D1039B00225A6064E080
:103F4800019B5B090893019B03F01F030693079AE3
:103F5800089B1A44069B002B0CBF00230123DBB2ED
:103F680013440993039B1A68099B9A4205DA03983C
:103F78000999FEF79FFF034601E0039B9B680593A1
:103F8800069B002B1FD0089B9B00059A1A44029B96
:103F98009B6810461946079A069BFDF7F7F90490A7
:103FA800099B03F18043013B9B00059A1344049A43
:103FB8001A60049B002B14BF00230123DBB2099A6B
:103FC800D31A099314E0089B9B00059A1A44029B94
:103FD8009B6810461946079AFCF7C6FD08E0089B3F
:103FE800013B0893089B9B00059A134400221A6022
:103FF800089B002BF3DC029B5B68002B02DA099B11
:104008005B4200E0099B039A53600BB05DF804FB28
:1040180000B589B003900291019205AB1846FEF7EE
:1040280007FF05AB18460299019AFFF7B7FE05ABE3
:10403800039803991A46FFF747FE05AB1846FEF7A3
:1040480029FF09B05DF804FB00B589B0039002911F
:10405800019205AB1846FEF7EBFE05AB1846029930
:10406800019AFFF79BFE05AB039803991A46FFF7E1
:1040780051FE05AB1846FEF70DFF09B05DF804FBCD
:1040880000B589B003900291019205AB1846FEF77E
:10409800CFFE05AB18460299019AFFF7CBFE05AB98
:1040A800039803991A46FFF70FFE05AB1846FEF76B
:1040B800F1FE09B05DF804FB00B589B003900291E8
:1040C800019205AB1846FEF7B3FE05AB18460299F8
:1040D800019AFFF7AFFE05AB039803991A46FFF75D
:1040E80019FE05AB1846FEF7D5FE09B05DF804FBCE
:1040F80000B597B00590049103920293039B5B6807
:104108001493029B5B681393139B002B02D189487D
:10411800FCF73AFC149B002B0DD1059B002B02D019
:10412800059B00225A60049B002B02D0049B0022AE
:104138005A600023F9E0149B002BB8BF5B4212932E
:10414800139B002BB8BF5B421193139A149B5340E7
:104158001093129A119B9A423FDA9DF86030012B16
:1041680013D1109B002B10DB049B002B04D0049868
:104178000399029AFFF7CEFD059B002B04D0059802
:104188000121FEF7D9FE26E025E09DF86030002BDE
:1041980014D1109B002B11DA049B002B04D0049837
:1041A8000399029AFFF790FD059B002B05D005980F
:1041B8004FF0FF31FEF7A6FE0DE00CE0049B002B4C
:1041C80003D004980399FEF7CBFE059B002B02D081
:1041D800059B00225A600123A7E007AB1846039904
:1041E800FEF704FF099B0F93129A119BD31A013310
:1041F8000E93059B002B09D00E9B5B010AAA104663
:104208001946FEF727FE0C9B159301E00023159332
:10421800029B9B68119A009215980F99129AFEF7C3
:10422800F3F9159B002B17D00E9B03F18043013B3C
:104238009B00159A13441B68002B14BF002301230D
:10424800DBB20E9AD31A0E93109B002B02DA0E9B48
:104258005B4200E00E9B0B930F981199FCF7E4FC6E
:104268000D90149B002B02DA0D9B5B4200E00D9B26
:1042780008939DF86030002B1BD1109B002B18DA97
:104288000D9B002B15D0059B002B06D00AAA0AAB64
:10429800104619460122FFF70DFC049B002B07D09E
:1042A80007AA07AB10461946029AFFF70DFD1EE054
:1042B8001DE09DF86030012B19D1109B002B16DBF7
:1042C8000D9B002B13D0059B002B06D00AAA0AAB26
:1042D800104619460122FFF7CFFB049B002B06D09E
:1042E80007AA07AB10461946029AFFF713FD059B6C
:1042F800002B08D00AAB18460599FFF7FBFA0AAB62
:104308001846FEF7C7FD049B002B04D007AB1846E0
:104318000499FFF7EFFA07AB1846FEF7BBFD0D9BB4
:10432800002B0CBF00230123DBB2184617B05DF841
:1043380004FB00BFB43A010800B587B005900491AA
:10434800039202930123009305980499039A029B10
:10435800FFF7CEFE07B05DF804FB00BF00B587B0DD
:104368000590049103920293002300930598049901
:10437800039A029BFFF7BCFE07B05DF804FB00BF81
:1043880000B587B00590049103920293022300932D
:1043980005980499039A029BFFF7AAFE07B05DF8F7
:1043A80004FB00BF00B587B0059004910392012378
:1043B800009305980021049A039BFFF799FE07B024
:1043C8005DF804FB00B587B00590049103920023C3
:1043D800009305980021049A039BFFF789FE07B014
:1043E8005DF804FB00B587B00590049103920223A1
:1043F800009305980021049A039BFFF779FE07B004
:104408005DF804FB00B587B0059004910392012381
:10441800009300200599049A039BFFF769FE07B0F3
:104428005DF804FB00B587B0059004910392002362
:10443800009300200599049A039BFFF759FE07B0E3
:104448005DF804FB00B587B0059004910392022340
:10445800009300200599049A039BFFF749FE07B0D3
:104468005DF804FB00B587B0059004910392039BA7
:104478005B68DB0FDBB2009300200599049A039B6D
:10448800FFF736FE07B05DF804FB00BF00B58BB040
:104498000390029101928DF80330029B5B680793A9
:1044A800079B002B03D1039B00225A6088E0019BE5
:1044B8005B090693079B83EAE372A2EBE372069B10
:1044C800D31A0993019B03F01F0301939DF803205E
:1044D800079B002BD4BF00230123DBB29A421ED1D5
:1044E800099B002B16DD029B9B6818460699FCF772
:1044F8009BFB0346002B0DD1029B9A68069B9B00F1
:1045080013441A68019B012101FA03F3013B13408C
:10451800002B01D0012300E00023089301E00023D1
:104528000893099B002B02DC0023099336E0039BC8
:104538001A68099B9A4205DA03980999FEF7BAFCAA
:10454800034601E0039B9B680593019B002B1BD04E
:10455800029B9A68069B9B00134405981946099A82
:10456800019BFCF789FF099B03F18043013B9B00FA
:10457800059A13441B68002B14BF00230123DBB2E8
:10458800099AD31A099309E0029B9A68069B9B0033
:10459800134405981946099AFCF7CCFA039B099A23
:1045A8005A60089B002B04D0039803990122FFF757
:1045B80063FA079B002B03DA03980399FFF786F940
:1045C8000BB05DF804FB00BF00B58FB003900291FB
:1045D80001928DF80330029B5B680D930D9B002BB5
:1045E80002D0019B002B03D1039B00225A6010E1EB
:1045F800019B1F335B090C930C9B002B06DC864840
:1046080040F64511854A864B09F0EEF9039B1A6876
:104618000C9B9A4205DA03980C99FEF74BFC03466B
:1046280001E0039B9B6808930D9B002BB8BF5B427E
:1046380007930C9B5A01019BD31A4FF0FF3222FAC1
:1046480003F306930C9A079B9A4262DD9DF80320B8
:104658000D9B002BD4BF00230123DBB29A424AD121
:1046680001230A9300230B931AE0029B9A680B9B81
:104678009B0013441B680A9AD31A013B0593059AB9
:104688000A9B9A422CBF00230123DBB20A930B9B9F
:104698009B00089A1344059A1A600B9B01330B93ED
:1046A8000B9A079B9A42E0DB0A9B002B06D05A48DC
:1046B80040F65C11594A5B4B09F096F909E00B9BEF
:1046C8009B00089A13444FF0FF321A600B9B01338A
:1046D8000B930C9B5A1E0B9B9A42F0DC0C9B03F12C
:1046E8008043013B9B00089A1344069A1A600D9B6D
:1046F8005B420D937FE0039A029B9A4206D0029B8D
:104708009B6808981946079AFCF714FA079B0C93BC
:1047180071E0039A029B9A4208D0029B9A680C9B0C
:10472800013B089811461A46FCF704FA0C9B03F162
:104738008043013B9B00089A1A44029B99680C9B92
:1047480003F18043013B9B000B441968069B0B4017
:1047580013609DF803200D9B002BD4BF0023012379
:10476800DBB29A4247D10023099302E0099B013347
:104778000993099A0C9B9A4206DA099B9B00089AAE
:1047880013441B68002BF1D0099A0C9B9A4232DA29
:10479800099B9B00089A1344099A920008990A44B5
:1047A800126852421A600AE0099B9B00089A134457
:1047B800099A920008990A441268D2431A60099B20
:1047C80001330993099A0C9B9A42EDDB0C9B03F188
:1047D8008043013B9B00089A1A440C9B03F18043D9
:1047E800013B9B0008990B441968069B0B4013601A
:1047F8000D9B5B420D9308980C99FCF715FA0C90E9
:104808000D9B002B02DA0C9B5B4200E00C9B039A89
:1048180053600FB05DF804FB6C380108483F01088D
:10482800D03A0108D83A010800B585B00390029142
:10483800019203980299019A0123FFF727FE05B018
:104848005DF804FB00B585B00390029101920398CE
:104858000299019A0023FFF719FE05B05DF804FBE1
:1048680000B585B003900291019203980299019ACC
:104878000223FFF70BFE05B05DF804FB00B585B019
:1048880003900291019203980299019A0123FFF77C
:104898009BFE05B05DF804FB00B585B0039002915E
:1048A800019203980299019A0023FFF78DFE05B043
:1048B8005DF804FB00B585B003900291019203985E
:1048C8000299019A0223FFF77FFE05B05DF804FB09
:1048D80000B589B0059004910392022300930598CE
:1048E8000021049A039BFFF703FC03460793079BE9
:1048F800002B06D0044840F6B411044A044B09F0D2
:1049080073F809B05DF804FB6C380108583F0108DA
:104918004C3A010800B585B0039002910223009338
:1049280000200021039A029BFFF7E2FB0346002BBD
:1049380014BF00230123DBB2184605B05DF804FB61
:1049480000B589B00390029101920198FEF7B4FE78
:104958000346002B0AD103980299FEF725FF034668
:10496800002B14BF00230123DBB214E004AB18466C
:10497800FEF75EFA04AB18460399029AFFF7CAF9E4
:1049880004AB18460199FFF7C5FF079004AB18461A
:10499800FEF780FA079B184609B05DF804FB00BFD4
:1049A80000B58BB00390029101920093019B5B6864
:1049B8000693069B002B0DD1039B002B02D0039B73
:1049C80000225A60029B002B02D0029B00225A60F0
:1049D8000023A2E0069B002BB8BF5B420593039B14
:1049E800002B0ED0039B1A68059B9A4205DA0398A0
:1049F8000599FEF75FFA034601E0039B9B6809935C
:104A080001E000230993019B9B6809981946059AC0
:104A1800009BFDF765F90890089A009B9A4206D317
:104A2800404840F6E911404A404B08F0DDFF089B3A
:104A3800002B0CBF00230123DBB20793069B002B3E
:104A480002DA079B5B4200E0079B0793089B002B59
:104A580028D09DF83030002B02D1069B002B06DBB6
:104A68009DF83030012B1DD1069B002B1ADB039BD0
:104A7800002B10D009980999059A0123FCF702F92F
:104A88000490049B002B06D0264840F6F211264AD3
:104A9800274B08F0A9FF009A089BD31A0893079B95
:104AA8005B420793029B002B06D0029B9B68089AE7
:104AB8001A60029B079A5A60039B002B2CD0059B17
:104AC80003F18043013B9B00099A13441B68002BA8
:104AD80014BF00230123DBB2059AD31A0593059B63
:104AE800002B10D0059B03F18043013B9B00099AE2
:104AF80013441B68002B06D10A4840F6FF110A4AE6
:104B08000C4B08F071FF069B002B02DA059B5B42F9
:104B180000E0059B039A5360089B18460BB05DF8AC
:104B280004FB00BF6C380108683F0108E03A01083F
:104B38004C3A0108E83A010800B587B0059004919D
:104B4800039202930123009305980499039A029B08
:104B5800FFF726FF0346184607B05DF804FB00BFC1
:104B680000B587B005900491039202930023009347
:104B780005980499039A029BFFF712FF034618460B
:104B880007B05DF804FB00BF00B587B0059004913D
:104B9800039202930223009305980499039A029BB7
:104BA800FFF7FEFE0346184607B05DF804FB00BF9A
:104BB80000B587B0059004910392012300930598EE
:104BC8000021049A039BFFF7EBFE0346184607B043
:104BD8005DF804FB00B587B00590049103920023AB
:104BE800009305980021049A039BFFF7D9FE03461A
:104BF800184607B05DF804FB00B587B0059004912E
:104C080003920223009305980021049A039BFFF75F
:104C1800C7FE0346184607B05DF804FB00B587B029
:104C28000590049103920123009300200599049AAA
:104C3800039BFFF7B5FE0346184607B05DF804FB73
:104C480000B587B0059004910392002300930020DB
:104C58000599049A039BFFF7A3FE0346184607B07D
:104C68005DF804FB00B587B0059004910392022318
:104C7800009300200599049A039BFFF791FE0346D1
:104C8800184607B05DF804FB00B585B003900291A3
:104C98000123009300200021039A029BFFF780FE66
:104CA8000346184605B05DF804FB00BF00B585B0A3
:104CB800039002910023009300200021039A029B95
:104CC800FFF76EFE0346184605B05DF804FB00BF0B
:104CD80000B585B0039002910223009300200021C3
:104CE800039A029BFFF75CFE0346184605B05DF881
:104CF80004FB00BF00B587B0059004910392002320
:104D0800009300200599049A039BFFF749FE034688
:104D1800184607B05DF804FB00B589B0059004910A
:104D280003920223009305980021049A039BFFF73E
:104D380037FE0790079B002B06D0054840F6562102
:104D4800044A054B08F050FE09B05DF804FB00BFAB
:104D58006C380108783F01084C3A010800B585B065
:104D6800039002910223009300200021039A029BE2
:104D7800FFF716FE0346002B14BF00230123DBB206
:104D8800184605B05DF804FB00B589B001900091A4
:104D9800019A009B1343002B06D1414840F6662137
:104DA800404A414B08F020FE019B002B01D1009B9B
:104DB80072E0009B002B01D1019B6DE0019A009BE2
:104DC8001343059300230493059B5A42059B134004
:104DD80007930023069305E0079B1B020793069B96
:104DE80008330693079B03F07F43002BF4D005E0BC
:104DF800079B5B000793069B01330693079B002BD9
:104E0800F6DA069B0493049BC3F11F030393039BE9
:104E1800019A22FA03F30193039B009A22FA03F3FF
:104E28000093019B03F00103002B06D1019B029321
:104E3800009B0193029B009303E002E0009B5B0848
:104E48000093009B03F00103002BF7D01CE0019AAC
:104E5800009B9A420CD9019A009BD31A0193019B9B
:104E68005B080193019B03F00103002BF7D00BE0D3
:104E7800009A019BD31A0093009B5B080093009B48
:104E880003F00103002BF7D0019A009B9A42DED170
:104E9800039B019A02FA03F3184609B05DF804FB74
:104EA8006C380108883F0108003B010800B587B04D
:104EB800039002910192019B002B07D1039B002BC9
:104EC80022D003980299FEF7E9FC1DE0029B5B687B
:104ED800002BB8BF5B420593059B002B0DD0029BAE
:104EE8009B6800201946059A019BFCF7F9FE0346CA
:104EF80018460199FFF748FF0190039B002B03D048
:104F080003980199FEF718F8019B184607B05DF859
:104F180004FB00BF00B587B00390039B5B68002BC0
:104F280006DC0F4840F6A8210E4A0F4B08F05CFD3E
:104F3800039B9B681A68039B9B680021009110469D
:104F480000211A460023FCF7FDFA059003980399FF
:104F5800059AFFF785FC059B184607B05DF804FB2A
:104F68006C380108943F01080C3B010800B591B06A
:104F7800039002910192029B5B68002B04D1039875
:104F88000199FEF78BFC8EE0019B5B68002B04D136
:104F980003980299FEF782FC85E007AB1846FDF7F7
:104FA80047FF04AB1846FDF743FF07AB18460299C5
:104FB800FEF774FC07AB1846FFF7ACFF0F9004AB85
:104FC80018460199FEF76AFC04AB1846FFF7A2FFE2
:104FD8000E900E9A0F9B9A4238BF13460D93089A6B
:104FE800059B9A4205DA07AA04AB10461946FEF754
:104FF80081FC07A907AA04AB084611461A46FFF721
:1050080021FA089B002B05D104AB03981946FEF73B
:1050180071FC3BE007AB1846FFF77CFF07AA04AB1F
:1050280010461946FEF7C0FB0C900C9B002B05D1CF
:1050380007AB03981946FEF75DFC27E00C9B002B95
:1050480005DA07AA04AB10461946FEF753FC059B80
:10505800012B12D1069B1B680B9307AB18460B99C3
:10506800FFF736FE0A900A980B99FFF78DFE034664
:1050780003981946FDF760FF08E007A907AA04ABE3
:10508800084611461A46FEF745FEC3E707AB184621
:10509800FDF700FF04AB1846FDF7FCFE03980399E3
:1050A8000D9AFEF73BFF11B05DF804FB00B5A3B005
:1050B8000390029101920093009B5B68002B17D12B
:1050C8002498FEF7F9FA1D9003982499FEF7E6FB59
:1050D800029B002B03D002980021FDF72DFF019BB6
:1050E800002B04D001981D99FDF70CFFD5E1D4E100
:1050F800249B5B68002B17D10098FEF7DDFA1C9003
:1051080003980099FEF7CAFB029B002B03D0029874
:105118001C99FDF7F7FE019B002B04D00198002194
:10512800FDF70AFFB9E1B8E114AB1846FDF780FEB8
:1051380011AB1846FDF77CFE0EAB1846FDF778FE5E
:105148000BAB1846FDF774FE08AB1846FDF770FE6A
:1051580005AB1846FDF76CFE14AB18460099FEF730
:105168009DFB14AB1846FFF7D5FE219011AB1846EE
:105178002499FEF793FB11AB1846FFF7CBFE20905E
:10518800209A219B9A4238BF13461B93219A1B9B56
:10519800D31A2193209A1B9BD31A2093159A129BFA
:1051A8009A4217DA14AA11AB10461946FEF7A2FB69
:1051B800009B1A93249B00931A9B2493029B199398
:1051C800019B0293199B0193219B1893209B219388
:1051D800189B209308AB1846219901F035F805A8CB
:1051E80014A914AA11ABFFF7CBF805AA05AB104612
:1051F8001946219AFEF792FE0BAB1846209901F04A
:1052080023F8219A209B13441F93159B002B40F3EE
:10521800818014AB1846FFF77DFE1E9008AA08ABE4
:10522800104619461E9AFEF779FE0EAA0EAB1046D6
:1052380019461E9AFEF772FE1F9A1E9B13441F936F
:1052480014AA11AB10461946FEF7AEFA1790179B31
:10525800002B00D15EE0179B002B2BDA11A911AAB5
:1052680014AB084611461A46FEF754FD08A908AAC9
:1052780005AB084611461A46FEF726FD0EA90EAAEA
:105288000BAB084611461A46FEF71EFD11AB184631
:10529800FFF740FE1E9005AA05AB104619461E9A58
:1052A800FEF73CFE0BAA0BAB104619461E9AFEF7FA
:1052B80035FE2AE014A914AA11AB084611461A466D
:1052C800FEF728FD05A908AA05AB084611461A46A7
:1052D800FEF7FAFC0BA90EAA0BAB084611461A46B4
:1052E800FEF7F2FC14AB1846FFF714FE1E9008AA4E
:1052F80008AB104619461E9AFEF710FE0EAA0EAB12
:10530800104619461E9AFEF709FE1F9A1E9B134463
:105318001F9395E711AA11AB104619461B9AFEF781
:10532800FDFD0EAA0EAB10461946FEF7CFFA0BAAE2
:1053380011AB104624991A46FFF7CAFA0BAA0BAB11
:1053480010461946FEF7AAFA05AA11AB10460099AD
:105358001A46FFF7BDFA05AA05AB10461946FEF72F
:105368009DFA35E00F9B002B0CBF00230123DBB215
:105378001A46109B1B681340002B0BD1099B002B6E
:105388000CBF00230123DBB21A460A9B1B6813409B
:10539800002B0FD00EA90EAA0BAB084611461A46D1
:1053A800FEF7B8FC08A908AA05AB084611461A4634
:1053B800FEF78AFC0EAA0EAB104619460222FFF72A
:1053C800ABFC08AA08AB104619460222FFF7A4FC5A
:1053D8001F9B5A1E1F92002BC4D10BA90EAA0BAB00
:1053E800084611461A46FEF76FFC0EAA0BAB10468C
:1053F8001946FEF739FA0346002B0DDD0EAA0BAB52
:1054080010461946FEF776FA08A908AA05AB084619
:1054180011461A46FEF77EFC009B5B68002B05DAF6
:105428000EAA0EAB10461946FEF750FA249B5B688D
:10543800002B05DA08AA08AB10461946FEF746FA0B
:1054480011AB03981946FEF755FA029B002B04D0BE
:105458000EAB02981946FEF74DFA019B002B04D0BB
:1054680008AB01981946FEF745FA14AB1846FDF744
:1054780011FD11AB1846FDF70DFD0EAB1846FDF7F3
:1054880009FD0BAB1846FDF705FD08AB1846FDF7FF
:1054980001FD05AB1846FDF7FDFC23B05DF804FBE4
:1054A80000B589B0039002910192029B5B68002BC2
:1054B80003D0019B5B68002B03D1039B00225A6039
:1054C8001EE005AB1846FDF7B3FC05AB184602997C
:1054D800019AFFF74BFD05AA05AB104602991A463B
:1054E800FFF7F6F905AB03981946019AFEF7A2FCF7
:1054F80005AB1846FDF7CEFC03980399FEF7CEF9E5
:1055080009B05DF804FB00BF00B585B003900291B7
:105518000192019B002B03D0029B5B68002B03D1F7
:10552800039B00225A6012E000200299019AFFF7BB
:10553800BDFC0346019AB2FBF3F301930398029969
:10554800019AFEF72BFC03980399FEF7A7F905B01B
:105558005DF804FB00B58FB0059004910392049B9D
:105568005B68002B06D003980121FEF753F9034628
:10557800002B01DC002344E00AAB1846FDF758FC79
:1055880007AB1846FDF754FC0AAA07AB039900912C
:10559800104619460022049BFFF788FD0AAB1846FF
:1055A8000121FEF7D3F80346002B14BF0023012383
:1055B800DBB20D930D9B002B1AD0089B002B12DA3F
:1055C800039B5B68002B07DB07AA07AB104619464D
:1055D800039AFEF779FB06E007AA07AB10461946BF
:1055E800039AFEF797FB07AB05981946FEF782F971
:1055F8000AAB1846FDF74EFC07AB1846FDF74AFC08
:105608000D9B18460FB05DF804FB00BF00B589B0CC
:1056180003900291019204AB18460121FDF7D8FCD2
:105628004FF00043079304A904AA04AB08461146A7
:105638001A46FEF7FFFB019A079B1340002B06D082
:1056480004AA04AB10461946029AFEF7F3FB079B1F
:105658005B080793079B002BE5D104AB0398194619
:10566800FEF748F904AB1846FDF714FC09B05DF8DD
:1056780004FB00BF00B589B003900291019205AB0D
:1056880018460299FDF7A4FC05AB03981946019A40
:10569800FFF7BCFF05AB1846FDF7FCFB09B05DF84A
:1056A80004FB00BF00B59DB00590049103920293DE
:1056B80000231993039B5B68002BB8BF5B421B93C5
:1056C800029B5B68002BB8BF5B421693169B002BAE
:1056D80002D18248FBF758F91B9B002B04D105988F
:1056E8000121FDF729FCF6E0029B9B681A9307ABA2
:1056F80018461A99169AFCF78DF9079B1593159B6E
:10570800002B18D0002307931698FBF7E1F919909E
:1057180019981A99169A159BFBF738FE1490149B42
:10572800002B06D06E4840F62B416E4A6E4B08F0AF
:105738005BF9199B1A930BAB1846FDF779FB039B92
:105748005B68002B0CDA0BAB18460499029AFFF73A
:1057580001FF0346002B49D16448FBF715F945E0E2
:105768000BAB18460499FEF799F80C9B1893189AF6
:10577800169B9A420DDB0D9A0C9B1699009107A96E
:105788000191002011461A461A9BFCF793FE169BBE
:105798001893049B5B68002B21DA0B9A169B9A429C
:1057A80006DA0BAB18461699FDF784FB034600E0B2
:1057B8000D9B1393189B009313981A99169A139B91
:1057C800FBF792FB1290129B002B06D0444840F640
:1057D8004841444A444B08F007F9169B18930D9B1F
:1057E80018461899FBF720FA03460C930EAB184697
:1057F8000121FDF7EDFB3BE0039B9A681B9B9B0097
:1058080013441B6811934FF0004317930EA90EAA77
:105818000EAB084611461A46FEF70CFB119A179B69
:105828001340002B07D00EA90EAA0BAB0846114651
:105838001A46FEF7FFFA0F9A169B9A4212DD109A43
:105848000F9B1699009107A90191002011461A464D
:105858001A9BFCF72FFE109B18461699FBF7E4F9E4
:1058680003460F93179B5B081793179B002BCDD10B
:105878001B9B5A1E1B92002BBEDC0F9A169B9A424A
:1058880014DB159B0793109A0F9B1699009107A993
:105898000191002011461A461A9BFCF70BFE109B3B
:1058A80018461699FBF7C0F903460F93199B002B6E
:1058B80004D00F4B1B681998002198470EAB059828
:1058C8001946FEF717F80EAB1846FDF7E3FA0BABCF
:1058D8001846FDF7DFFA1DB05DF804FB1C3B010814
:1058E8006C380108A43F01084C3A0108343B010810
:1058F8001400002000B589B0039002910192009332
:1059080005AB18460199FDF763FB05AB03980299AF
:105918001A46009BFFF7C6FE05AB1846FDF7BAFA14
:1059280009B05DF804FB00BF00B591B00390029187
:1059380001920093019B5B68DB0FDBB20F93009B26
:10594800DA430F9B1340002B02D06548FBF71CF885
:10595800009B002B02D16348FBF716F80198012140
:10596800FDF758FF0346002B0EDC039B002B03D0EA
:1059780003980199FDF7F4FA029B002B00F0AD8023
:10598800029B00225A60A8E008AB1846FDF750FABF
:105998000198022101F092F90246009BB2FBF3F351
:1059A80001330E930BAB18460E99FDF753FA0BAB68
:1059B80018460E9900F048FC009B022B25D108AA36
:1059C8000BAB10461946FDF795FF0BAA08AB10461E
:1059D80001991A46FEF706FD0BA90BAA08AB084663
:1059E80011461A46FEF770F90BAA0BAB104619467A
:1059F8000122FEF735FF0BAA08AB10461946FDF742
:105A080033FF0346002BDADB47E005AB1846FDF70A
:105A18000FFA0F9B002B05D00BAA0BAB10461946AB
:105A2800FDF754FF08AA0BAB10461946FDF762FFB5
:105A3800009B013B0BA908AA084611461A46FFF726
:105A4800E5FD0BAA0BAB104601991A46FEF7CAFCF6
:105A5800009B013B05A908AA084611461A46FEF70D
:105A68009DF90BA90BAA05AB084611461A46FEF785
:105A78002BF90BAA0BAB10461946009AFFF7BCF896
:105A88000BAA08AB10461946FDF7EEFE0346002B9D
:105A9800C8DB05AB1846FDF7FDF9029B002B0CD0BF
:105AA8000BAA08AB10461946009AFFF7AFFD0BABDF
:105AB800029801991A46FEF72DF9039B002B04D092
:105AC80008AB03981946FDF715FF08AB1846FDF714
